{"abi":[{"type":"constructor","inputs":[{"name":"_keymgr","type":"address","internalType":"contract KeyManager_v0"}],"stateMutability":"nonpayable"},{"type":"function","name":"advance","inputs":[],"outputs":[],"stateMutability":"nonpayable"},{"type":"function","name":"blocknumber","inputs":[],"outputs":[{"name":"","type":"uint256","internalType":"uint256"}],"stateMutability":"view"},{"type":"function","name":"deadlines","inputs":[{"name":"","type":"bytes32","internalType":"bytes32"}],"outputs":[{"name":"","type":"uint256","internalType":"uint256"}],"stateMutability":"view"},{"type":"function","name":"decrypt","inputs":[{"name":"ciphertext","type":"bytes","internalType":"bytes"}],"outputs":[{"name":"","type":"bytes","internalType":"bytes"}],"stateMutability":"nonpayable"},{"type":"function","name":"encryptMessage","inputs":[{"name":"message","type":"string","internalType":"string"},{"name":"r","type":"bytes32","internalType":"bytes32"}],"outputs":[{"name":"","type":"bytes","internalType":"bytes"}],"stateMutability":"view"},{"type":"function","name":"isInitialized","inputs":[],"outputs":[{"name":"","type":"bool","internalType":"bool"}],"stateMutability":"view"},{"type":"function","name":"number","inputs":[],"outputs":[{"name":"","type":"uint256","internalType":"uint256"}],"stateMutability":"view"},{"type":"function","name":"submitEncrypted","inputs":[{"name":"ciphertext","type":"bytes","internalType":"bytes"}],"outputs":[],"stateMutability":"nonpayable"},{"type":"event","name":"EncryptedMessage","inputs":[{"name":"ciphertext","type":"bytes","indexed":false,"internalType":"bytes"},{"name":"contentHash","type":"bytes32","indexed":false,"internalType":"bytes32"},{"name":"deadline","type":"uint256","indexed":false,"internalType":"uint256"}],"anonymous":false}],"bytecode":{"object":"0x608060405234801561001057600080fd5b5060405161086638038061086683398101604081905261002f91610054565b600080546001600160a01b0319166001600160a01b0392909216919091179055610084565b60006020828403121561006657600080fd5b81516001600160a01b038116811461007d57600080fd5b9392505050565b6107d3806100936000396000f3fe608060405234801561001057600080fd5b50600436106100885760003560e01c8063392e53cd1161005b578063392e53cd146100fc57806366df7a65146101145780638381f58a14610129578063ea105ac71461013157600080fd5b8063050622471461008d578063210ca7be146100a9578063346a4a51146100c9578063375d1019146100e9575b600080fd5b61009660015481565b6040519081526020015b60405180910390f35b6100bc6100b7366004610537565b61013a565b6040516100a091906105d8565b6100966100d73660046105eb565b60026020526000908152604090205481565b6100bc6100f7366004610604565b61027e565b610104610398565b60405190151581526020016100a0565b610127610122366004610537565b610411565b005b610096610472565b61012743600155565b80516020808301919091206000818152600290925260408220546060920361016157600080fd5b600081815260026020526040902054610178610472565b101561018357600080fd5b735b2fbae7b14c1ba77df358b10c75fc93a428209c636700aa8a60008054906101000a90046001600160a01b03166001600160a01b031663121a1d1c6040518163ffffffff1660e01b81526004016020604051808303816000875af11580156101f0573d6000803e3d6000fd5b505050506040513d601f19601f82011682018060405250810190610214919061065d565b856040518363ffffffff1660e01b8152600401610232929190610676565b600060405180830381865af415801561024f573d6000803e3d6000fd5b505050506040513d6000823e601f3d908101601f19168201604052610277919081019061068f565b9392505050565b600054604051631ef9cac560e31b8152306004820152606091735b2fbae7b14c1ba77df358b10c75fc93a428209c9163de89495f916001600160a01b03169063f7ce562890602401600060405180830381865afa1580156102e3573d6000803e3d6000fd5b505050506040513d6000823e601f3d908101601f1916820160405261030b919081019061068f565b848660405160200161031d9190610706565b6040516020818303038152906040526040518463ffffffff1660e01b815260040161034a93929190610722565b600060405180830381865af4158015610367573d6000803e3d6000fd5b505050506040513d6000823e601f3d908101601f1916820160405261038f919081019061068f565b90505b92915050565b60008054604051631ef9cac560e31b81523060048201526001600160a01b039091169063f7ce562890602401600060405180830381865afa1580156103e1573d6000803e3d6000fd5b505050506040513d6000823e601f3d908101601f19168201604052610409919081019061068f565b511515919050565b80516020820120610423600f43610757565b60008281526002602052604090819020829055517fcfc82b98d51452899a3e3891b96942c773ec41bf48dde904b998a5b3cee5593f916104669185918591610778565b60405180910390a15050565b600060015443111561048357504390565b5060015490565b634e487b7160e01b600052604160045260246000fd5b604051601f8201601f1916810167ffffffffffffffff811182821017156104c9576104c961048a565b604052919050565b600067ffffffffffffffff8211156104eb576104eb61048a565b50601f01601f191660200190565b600061050c610507846104d1565b6104a0565b905082815283838301111561052057600080fd5b828260208301376000602084830101529392505050565b60006020828403121561054957600080fd5b813567ffffffffffffffff81111561056057600080fd5b8201601f8101841361057157600080fd5b610580848235602084016104f9565b949350505050565b60005b838110156105a357818101518382015260200161058b565b50506000910152565b600081518084526105c4816020860160208601610588565b601f01601f19169290920160200192915050565b60208152600061038f60208301846105ac565b6000602082840312156105fd57600080fd5b5035919050565b6000806040838503121561061757600080fd5b823567ffffffffffffffff81111561062e57600080fd5b8301601f8101851361063f57600080fd5b61064e858235602084016104f9565b95602094909401359450505050565b60006020828403121561066f57600080fd5b5051919050565b82815260406020820152600061058060408301846105ac565b6000602082840312156106a157600080fd5b815167ffffffffffffffff8111156106b857600080fd5b8201601f810184136106c957600080fd5b80516106d7610507826104d1565b8181528560208385010111156106ec57600080fd5b6106fd826020830160208601610588565b95945050505050565b60008251610718818460208701610588565b9190910192915050565b60608152600061073560608301866105ac565b846020840152828103604084015261074d81856105ac565b9695505050505050565b8082018082111561039257634e487b7160e01b600052601160045260246000fd5b60608152600061078b60608301866105ac565b6020830194909452506040015291905056fea2646970667358221220f549b2ac00ade524ea508fd67edb45da32d0ca373a46f60f1578f5a2099b0b9c64736f6c63430008160033","linkReferences":{}},"methodIdentifiers":{"advance()":"ea105ac7","blocknumber()":"05062247","deadlines(bytes32)":"346a4a51","decrypt(bytes)":"210ca7be","encryptMessage(string,bytes32)":"375d1019","isInitialized()":"392e53cd","number()":"8381f58a","submitEncrypted(bytes)":"66df7a65"},"id":95}